Exempelfiler –Makuleringar/ ändringar av betalningar (från Bankgirot)



01AUTOGIRO              20080611            MAKULERING/ÄNDRING  4711170009912346
2100000000                000000033350000000002300000000000000000000000012
2220080613                000000040000000000001800000000000000000000000012
2320080612000000000555524282000000021000REFERENS00000000RIDLEKTION25    12
24200806310000000003331022820000000300000000000000000000000000000000000001
2520080611000000000555100482000000007500REFERENS00000000FAKTNR165000000010
03200806110000000000000101820000000150000000000000000000000000000000000012
1120080611000000000000010282000000025000REFERENS00000000RIDLEKTION10000012
2520080612000000000000010332000000012500REFERENS00000000FAKTNR169000000011
24200806310000000000000104320000000333000000000000000000000000000000000001
2520080611000000000777101432000000500000REFERENS00000000RIDLEKTION5ÅTERB12
2600000000                000000000000000000003320080630000000000000000014
2720080613                000000000000000000012320080630000000000000000014      
2320080613000000000000010532000000007500REFERENS00000000FAKTNR170000000013
28200806160000000000000106820000001000000000000020080621000000000000000006
2920080612000000000000010782000000050000REFERENS20080616FAKTNR166000000014
28200806160000000000000108820000000225000000000020080612000000000000000002
2920080612000000000000010932000000077500REFERENS20080616RIDLEKTION4ÅTERB14
29200806160000000000000110320000000050000000000020080610000000000000000006
09200806119900              0000005775000000020000040000000000111000000000000000
