[---+----1----+----2----+----3----+----4----+----5----+----6----+----7----+----8
01AUTOGIRO              20091110193055123456BET. SPEC & STOPP TK4711170009912346
15000000000000000000089010032323232322009111000001000000000001500000   00000005 
82200911100    00000000000001010000003000000009912346000000RIDLEKTION          0
82200911105006 000000000000010200000030000000099123460000000FAKTNR156          0
82200911105006 000000000000010300000030000000099123460000000FAKTNR157          0
82200911100    00000000077710140000003000000009912346000000RIDLEKTION          0
82200911105006 000000000000010500000030000000099123460000000FAKTNR158          0
82200911100    00000000000001060000003000000009912346000000RIDLEKTION          1
82200911100    00000000000001070000003000000009912346000000RIDLEKTION          2
82200911100    00000000022221010000003000000009912346000000RIDLEKTION          9
16000000000000000000089010032323232322009111000001000000000000300000   00000003 
32200911100    000000000000010900000010000000099123460000000FAKTNR155          0
32200911100    000000000000011000000010000000099123460000000FAKTNR154          0
32200911100    000000000000011100000010000000099123460000000FAKTNR153          0
32200911100    000000003333102200000010000000099123460000000FAKTNR151          1
17000000000000000000089010032323232322009111000001000000000000020000   00000001 
77200911030    000000000000011400000002000000099123460000000FAKTNR1502009111002 
17000000000000000000089010032323232322009111000001000000000000050000   00000001 
77200911050    000000000000011500000005000000099123460000000FAKTNR1492009111001 
09200911109900000001000000000005000001000000000003000002000000000002            