Exempelfil –Avvisade betalningsuppdrag (från Bankgirot)



01AUTOGIRO              20080611            AVVISADE BET UPPDR  4711170009912346
822008061150060000000000003333000000007500RIDLEKTION      02                    
822008061190110000000000004444000000025000FAKTNR158       06                    
822008061120020000000000005555000000055051FAKTNR160       08                    
32200806110   0000000000001212000000007500RIDLEKTION ÅTERB01                    
32200806330   0000000000002323000000008000RIDLEKTION ÅTERB12                    
32200806110   0000000000001414000000025000FAKTNR161       10                    
32200806030   0000000000005556000000007500FAKTNR162       13                    
32200806110   0000000000007575000000080200RIDLEKTION ÅTERB01                    
09200806119900000005000000128200000003000000087551                              




