012004011899000009912346AG-MEDAVI                                                                                             
7300099123460000000000023344330012121212000019121212121200000041020041018000000 
7300099123460000000000034433890132323211100000555600052100000043220041018041026 
7300099123460000000000042233500100123560000019680305111100000043220041018041026 
7300099123460000000000052244700100000123456719460817222200000043220041018041026 
7300099123460000000000061155134800000987600019461017333300000043220041018041026 
7300099123460000000000044333600000123456777019490730444400000041020041018000000 
7300099123460000195809010000                                 033320041018000000 
092004101899000000007                                                                                                                     
